{
  "_format": "hh-sol-artifact-1",
  "contractName": "PunksNFT",
  "sourceName": "contracts/Lock.sol",
  "abi": [
    {
      "inputs": [],
      "stateMutability": "payable",
      "type": "constructor"
    },
    {
      "anonymous": false,
      "inputs": [
        {
          "indexed": true,
          "internalType": "address",
          "name": "owner",
          "type": "address"
        },
        {
          "indexed": true,
          "internalType": "address",
          "name": "approved",
          "type": "address"
        },
        {
          "indexed": true,
          "internalType": "uint256",
          "name": "tokenId",
          "type": "uint256"
        }
      ],
      "name": "Approval",
      "type": "event"
    },
    {
      "anonymous": false,
      "inputs": [
        {
          "indexed": true,
          "internalType": "address",
          "name": "owner",
          "type": "address"
        },
        {
          "indexed": true,
          "internalType": "address",
          "name": "operator",
          "type": "address"
        },
        {
          "indexed": false,
          "internalType": "bool",
          "name": "approved",
          "type": "bool"
        }
      ],
      "name": "ApprovalForAll",
      "type": "event"
    },
    {
      "anonymous": false,
      "inputs": [
        {
          "indexed": true,
          "internalType": "address",
          "name": "previousOwner",
          "type": "address"
        },
        {
          "indexed": true,
          "internalType": "address",
          "name": "newOwner",
          "type": "address"
        }
      ],
      "name": "OwnershipTransferred",
      "type": "event"
    },
    {
      "anonymous": false,
      "inputs": [
        {
          "indexed": true,
          "internalType": "address",
          "name": "from",
          "type": "address"
        },
        {
          "indexed": true,
          "internalType": "address",
          "name": "to",
          "type": "address"
        },
        {
          "indexed": true,
          "internalType": "uint256",
          "name": "tokenId",
          "type": "uint256"
        }
      ],
      "name": "Transfer",
      "type": "event"
    },
    {
      "inputs": [
        {
          "internalType": "address",
          "name": "to",
          "type": "address"
        },
        {
          "internalType": "uint256",
          "name": "tokenId",
          "type": "uint256"
        }
      ],
      "name": "approve",
      "outputs": [],
      "stateMutability": "nonpayable",
      "type": "function"
    },
    {
      "inputs": [
        {
          "internalType": "address",
          "name": "owner",
          "type": "address"
        }
      ],
      "name": "balanceOf",
      "outputs": [
        {
          "internalType": "uint256",
          "name": "",
          "type": "uint256"
        }
      ],
      "stateMutability": "view",
      "type": "function"
    },
    {
      "inputs": [
        {
          "internalType": "uint256",
          "name": "tokenId",
          "type": "uint256"
        }
      ],
      "name": "getApproved",
      "outputs": [
        {
          "internalType": "address",
          "name": "",
          "type": "address"
        }
      ],
      "stateMutability": "view",
      "type": "function"
    },
    {
      "inputs": [
        {
          "internalType": "address",
          "name": "owner",
          "type": "address"
        },
        {
          "internalType": "address",
          "name": "operator",
          "type": "address"
        }
      ],
      "name": "isApprovedForAll",
      "outputs": [
        {
          "internalType": "bool",
          "name": "",
          "type": "bool"
        }
      ],
      "stateMutability": "view",
      "type": "function"
    },
    {
      "inputs": [],
      "name": "mint",
      "outputs": [],
      "stateMutability": "payable",
      "type": "function"
    },
    {
      "inputs": [],
      "name": "name",
      "outputs": [
        {
          "internalType": "string",
          "name": "",
          "type": "string"
        }
      ],
      "stateMutability": "view",
      "type": "function"
    },
    {
      "inputs": [],
      "name": "owner",
      "outputs": [
        {
          "internalType": "address",
          "name": "",
          "type": "address"
        }
      ],
      "stateMutability": "view",
      "type": "function"
    },
    {
      "inputs": [
        {
          "internalType": "uint256",
          "name": "tokenId",
          "type": "uint256"
        }
      ],
      "name": "ownerOf",
      "outputs": [
        {
          "internalType": "address",
          "name": "",
          "type": "address"
        }
      ],
      "stateMutability": "view",
      "type": "function"
    },
    {
      "inputs": [],
      "name": "renounceOwnership",
      "outputs": [],
      "stateMutability": "nonpayable",
      "type": "function"
    },
    {
      "inputs": [
        {
          "internalType": "address",
          "name": "from",
          "type": "address"
        },
        {
          "internalType": "address",
          "name": "to",
          "type": "address"
        },
        {
          "internalType": "uint256",
          "name": "tokenId",
          "type": "uint256"
        }
      ],
      "name": "safeTransferFrom",
      "outputs": [],
      "stateMutability": "nonpayable",
      "type": "function"
    },
    {
      "inputs": [
        {
          "internalType": "address",
          "name": "from",
          "type": "address"
        },
        {
          "internalType": "address",
          "name": "to",
          "type": "address"
        },
        {
          "internalType": "uint256",
          "name": "tokenId",
          "type": "uint256"
        },
        {
          "internalType": "bytes",
          "name": "data",
          "type": "bytes"
        }
      ],
      "name": "safeTransferFrom",
      "outputs": [],
      "stateMutability": "nonpayable",
      "type": "function"
    },
    {
      "inputs": [
        {
          "internalType": "address",
          "name": "operator",
          "type": "address"
        },
        {
          "internalType": "bool",
          "name": "approved",
          "type": "bool"
        }
      ],
      "name": "setApprovalForAll",
      "outputs": [],
      "stateMutability": "nonpayable",
      "type": "function"
    },
    {
      "inputs": [
        {
          "internalType": "bytes4",
          "name": "interfaceId",
          "type": "bytes4"
        }
      ],
      "name": "supportsInterface",
      "outputs": [
        {
          "internalType": "bool",
          "name": "",
          "type": "bool"
        }
      ],
      "stateMutability": "view",
      "type": "function"
    },
    {
      "inputs": [],
      "name": "symbol",
      "outputs": [
        {
          "internalType": "string",
          "name": "",
          "type": "string"
        }
      ],
      "stateMutability": "view",
      "type": "function"
    },
    {
      "inputs": [
        {
          "internalType": "uint256",
          "name": "tokenId",
          "type": "uint256"
        }
      ],
      "name": "tokenURI",
      "outputs": [
        {
          "internalType": "string",
          "name": "",
          "type": "string"
        }
      ],
      "stateMutability": "view",
      "type": "function"
    },
    {
      "inputs": [],
      "name": "totalSuply",
      "outputs": [
        {
          "internalType": "uint256",
          "name": "",
          "type": "uint256"
        }
      ],
      "stateMutability": "view",
      "type": "function"
    },
    {
      "inputs": [
        {
          "internalType": "address",
          "name": "from",
          "type": "address"
        },
        {
          "internalType": "address",
          "name": "to",
          "type": "address"
        },
        {
          "internalType": "uint256",
          "name": "tokenId",
          "type": "uint256"
        }
      ],
      "name": "transferFrom",
      "outputs": [],
      "stateMutability": "nonpayable",
      "type": "function"
    },
    {
      "inputs": [
        {
          "internalType": "address",
          "name": "newOwner",
          "type": "address"
        }
      ],
      "name": "transferOwnership",
      "outputs": [],
      "stateMutability": "nonpayable",
      "type": "function"
    }
  ],
  "bytecode": "0x60806040526040518060400160405280600581526020017f50756e6b730000000000000000000000000000000000000000000000000000008152506040518060400160405280600181526020017f500000000000000000000000000000000000000000000000000000000000000081525081600090805190602001906200008892919062000198565b508060019080519060200190620000a192919062000198565b505050620000c4620000b8620000ca60201b60201c565b620000d260201b60201c565b620002ad565b600033905090565b6000600660009054906101000a900473ffffffffffffffffffffffffffffffffffffffff16905081600660006101000a81548173ffffffffffffffffffffffffffffffffffffffff021916908373ffffffffffffffffffffffffffffffffffffffff1602179055508173ffffffffffffffffffffffffffffffffffffffff168173ffffffffffffffffffffffffffffffffffffffff167f8be0079c531659141344cd1fd0a4f28419497f9722a3daafe3b4186f6b6457e060405160405180910390a35050565b828054620001a69062000277565b90600052602060002090601f016020900481019282620001ca576000855562000216565b82601f10620001e557805160ff191683800117855562000216565b8280016001018555821562000216579182015b8281111562000215578251825591602001919060010190620001f8565b5b50905062000225919062000229565b5090565b5b80821115620002445760008160009055506001016200022a565b5090565b7f4e487b7100000000000000000000000000000000000000000000000000000000600052602260045260246000fd5b600060028204905060018216806200029057607f821691505b60208210811415620002a757620002a662000248565b5b50919050565b61298680620002bd6000396000f3fe6080604052600436106101095760003560e01c8063715018a611610095578063a2a9679911610064578063a2a9679914610348578063b88d4fde14610373578063c87b56dd1461039c578063e985e9c5146103d9578063f2fde38b1461041657610109565b8063715018a6146102b25780638da5cb5b146102c957806395d89b41146102f4578063a22cb4651461031f57610109565b80631249c58b116100dc5780631249c58b146101dc57806323b872dd146101e657806342842e0e1461020f5780636352211e1461023857806370a082311461027557610109565b806301ffc9a71461010e57806306fdde031461014b578063081812fc14610176578063095ea7b3146101b3575b600080fd5b34801561011a57600080fd5b50610135600480360381019061013091906119e7565b61043f565b6040516101429190611a2f565b60405180910390f35b34801561015757600080fd5b50610160610521565b60405161016d9190611ae3565b60405180910390f35b34801561018257600080fd5b5061019d60048036038101906101989190611b3b565b6105b3565b6040516101aa9190611ba9565b60405180910390f35b3480156101bf57600080fd5b506101da60048036038101906101d59190611bf0565b6105f9565b005b6101e4610711565b005b3480156101f257600080fd5b5061020d60048036038101906102089190611c30565b610749565b005b34801561021b57600080fd5b5061023660048036038101906102319190611c30565b6107a9565b005b34801561024457600080fd5b5061025f600480360381019061025a9190611b3b565b6107c9565b60405161026c9190611ba9565b60405180910390f35b34801561028157600080fd5b5061029c60048036038101906102979190611c83565b61087b565b6040516102a99190611cbf565b60405180910390f35b3480156102be57600080fd5b506102c7610933565b005b3480156102d557600080fd5b506102de610947565b6040516102eb9190611ba9565b60405180910390f35b34801561030057600080fd5b50610309610971565b6040516103169190611ae3565b60405180910390f35b34801561032b57600080fd5b5061034660048036038101906103419190611d06565b610a03565b005b34801561035457600080fd5b5061035d610a19565b60405161036a9190611cbf565b60405180910390f35b34801561037f57600080fd5b5061039a60048036038101906103959190611e7b565b610a1f565b005b3480156103a857600080fd5b506103c360048036038101906103be9190611b3b565b610a81565b6040516103d09190611ae3565b60405180910390f35b3480156103e557600080fd5b5061040060048036038101906103fb9190611efe565b610ae9565b60405161040d9190611a2f565b60405180910390f35b34801561042257600080fd5b5061043d60048036038101906104389190611c83565b610b7d565b005b60007f80ac58cd000000000000000000000000000000000000000000000000000000007bffffffffffffffffffffffffffffffffffffffffffffffffffffffff1916827bffffffffffffffffffffffffffffffffffffffffffffffffffffffff1916148061050a57507f5b5e139f000000000000000000000000000000000000000000000000000000007bffffffffffffffffffffffffffffffffffffffffffffffffffffffff1916827bffffffffffffffffffffffffffffffffffffffffffffffffffffffff1916145b8061051a575061051982610c01565b5b9050919050565b60606000805461053090611f6d565b80601f016020809104026020016040519081016040528092919081815260200182805461055c90611f6d565b80156105a95780601f1061057e576101008083540402835291602001916105a9565b820191906000526020600020905b81548152906001019060200180831161058c57829003601f168201915b5050505050905090565b60006105be82610c6b565b6004600083815260200190815260200160002060009054906101000a900473ffffffffffffffffffffffffffffffffffffffff169050919050565b6000610604826107c9565b90508073ffffffffffffffffffffffffffffffffffffffff168373ffffffffffffffffffffffffffffffffffffffff161415610675576040517f08c379a000000000000000000000000000000000000000000000000000000000815260040161066c90612011565b60405180910390fd5b8073ffffffffffffffffffffffffffffffffffffffff16610694610cb6565b73ffffffffffffffffffffffffffffffffffffffff1614806106c357506106c2816106bd610cb6565b610ae9565b5b610702576040517f08c379a00000000000000000000000000000000000000000000000000000000081526004016106f9906120a3565b60405180910390fd5b61070c8383610cbe565b505050565b6000600160075461072291906120f2565b90506007600081548092919061073790612148565b91905055506107463382610d77565b50565b61075a610754610cb6565b82610d95565b610799576040517f08c379a000000000000000000000000000000000000000000000000000000000815260040161079090612203565b60405180910390fd5b6107a4838383610e2a565b505050565b6107c483838360405180602001604052806000815250610a1f565b505050565b6000806002600084815260200190815260200160002060009054906101000a900473ffffffffffffffffffffffffffffffffffffffff169050600073ffffffffffffffffffffffffffffffffffffffff168173ffffffffffffffffffffffffffffffffffffffff161415610872576040517f08c379a00000000000000000000000000000000000000000000000000000000081526004016108699061226f565b60405180910390fd5b80915050919050565b60008073ffffffffffffffffffffffffffffffffffffffff168273ffffffffffffffffffffffffffffffffffffffff1614156108ec576040517f08c379a00000000000000000000000000000000000000000000000000000000081526004016108e390612301565b60405180910390fd5b600360008373ffffffffffffffffffffffffffffffffffffffff1673ffffffffffffffffffffffffffffffffffffffff168152602001908152602001600020549050919050565b61093b611091565b610945600061110f565b565b6000600660009054906101000a900473ffffffffffffffffffffffffffffffffffffffff16905090565b60606001805461098090611f6d565b80601f01602080910402602001604051908101604052809291908181526020018280546109ac90611f6d565b80156109f95780601f106109ce576101008083540402835291602001916109f9565b820191906000526020600020905b8154815290600101906020018083116109dc57829003601f168201915b5050505050905090565b610a15610a0e610cb6565b83836111d5565b5050565b60075481565b610a30610a2a610cb6565b83610d95565b610a6f576040517f08c379a0000000000000000000000000000000000000000000000000000000008152600401610a6690612203565b60405180910390fd5b610a7b84848484611342565b50505050565b6060610a8c82610c6b565b6000610a9661139e565b90506000815111610ab65760405180602001604052806000815250610ae1565b80610ac0846113b5565b604051602001610ad192919061235d565b6040516020818303038152906040525b915050919050565b6000600560008473ffffffffffffffffffffffffffffffffffffffff1673ffffffffffffffffffffffffffffffffffffffff16815260200190815260200160002060008373ffffffffffffffffffffffffffffffffffffffff1673ffffffffffffffffffffffffffffffffffffffff16815260200190815260200160002060009054906101000a900460ff16905092915050565b610b85611091565b600073ffffffffffffffffffffffffffffffffffffffff168173ffffffffffffffffffffffffffffffffffffffff161415610bf5576040517f08c379a0000000000000000000000000000000000000000000000000000000008152600401610bec906123f3565b60405180910390fd5b610bfe8161110f565b50565b60007f01ffc9a7000000000000000000000000000000000000000000000000000000007bffffffffffffffffffffffffffffffffffffffffffffffffffffffff1916827bffffffffffffffffffffffffffffffffffffffffffffffffffffffff1916149050919050565b610c7481611516565b610cb3576040517f08c379a0000000000000000000000000000000000000000000000000000000008152600401610caa9061226f565b60405180910390fd5b50565b600033905090565b816004600083815260200190815260200160002060006101000a81548173ffffffffffffffffffffffffffffffffffffffff021916908373ffffffffffffffffffffffffffffffffffffffff160217905550808273ffffffffffffffffffffffffffffffffffffffff16610d31836107c9565b73ffffffffffffffffffffffffffffffffffffffff167f8c5be1e5ebec7d5bd14f71427d1e84f3dd0314c0f7b2291e5b200ac8c7c3b92560405160405180910390a45050565b610d91828260405180602001604052806000815250611582565b5050565b600080610da1836107c9565b90508073ffffffffffffffffffffffffffffffffffffffff168473ffffffffffffffffffffffffffffffffffffffff161480610de35750610de28185610ae9565b5b80610e2157508373ffffffffffffffffffffffffffffffffffffffff16610e09846105b3565b73ffffffffffffffffffffffffffffffffffffffff16145b91505092915050565b8273ffffffffffffffffffffffffffffffffffffffff16610e4a826107c9565b73ffffffffffffffffffffffffffffffffffffffff1614610ea0576040517f08c379a0000000000000000000000000000000000000000000000000000000008152600401610e9790612485565b60405180910390fd5b600073ffffffffffffffffffffffffffffffffffffffff168273ffffffffffffffffffffffffffffffffffffffff161415610f10576040517f08c379a0000000000000000000000000000000000000000000000000000000008152600401610f0790612517565b60405180910390fd5b610f1b8383836115dd565b610f26600082610cbe565b6001600360008573ffffffffffffffffffffffffffffffffffffffff1673ffffffffffffffffffffffffffffffffffffffff1681526020019081526020016000206000828254610f769190612537565b925050819055506001600360008473ffffffffffffffffffffffffffffffffffffffff1673ffffffffffffffffffffffffffffffffffffffff1681526020019081526020016000206000828254610fcd91906120f2565b92505081905550816002600083815260200190815260200160002060006101000a81548173ffffffffffffffffffffffffffffffffffffffff021916908373ffffffffffffffffffffffffffffffffffffffff160217905550808273ffffffffffffffffffffffffffffffffffffffff168473ffffffffffffffffffffffffffffffffffffffff167fddf252ad1be2c89b69c2b068fc378daa952ba7f163c4a11628f55a4df523b3ef60405160405180910390a461108c8383836115e2565b505050565b611099610cb6565b73ffffffffffffffffffffffffffffffffffffffff166110b7610947565b73ffffffffffffffffffffffffffffffffffffffff161461110d576040517f08c379a0000000000000000000000000000000000000000000000000000000008152600401611104906125b7565b60405180910390fd5b565b6000600660009054906101000a900473ffffffffffffffffffffffffffffffffffffffff16905081600660006101000a81548173ffffffffffffffffffffffffffffffffffffffff021916908373ffffffffffffffffffffffffffffffffffffffff1602179055508173ffffffffffffffffffffffffffffffffffffffff168173ffffffffffffffffffffffffffffffffffffffff167f8be0079c531659141344cd1fd0a4f28419497f9722a3daafe3b4186f6b6457e060405160405180910390a35050565b8173ffffffffffffffffffffffffffffffffffffffff168373ffffffffffffffffffffffffffffffffffffffff161415611244576040517f08c379a000000000000000000000000000000000000000000000000000000000815260040161123b90612623565b60405180910390fd5b80600560008573ffffffffffffffffffffffffffffffffffffffff1673ffffffffffffffffffffffffffffffffffffffff16815260200190815260200160002060008473ffffffffffffffffffffffffffffffffffffffff1673ffffffffffffffffffffffffffffffffffffffff16815260200190815260200160002060006101000a81548160ff0219169083151502179055508173ffffffffffffffffffffffffffffffffffffffff168373ffffffffffffffffffffffffffffffffffffffff167f17307eab39ab6107e8899845ad3d59bd9653f200f220920489ca2b5937696c31836040516113359190611a2f565b60405180910390a3505050565b61134d848484610e2a565b611359848484846115e7565b611398576040517f08c379a000000000000000000000000000000000000000000000000000000000815260040161138f906126b5565b60405180910390fd5b50505050565b606060405180602001604052806000815250905090565b606060008214156113fd576040518060400160405280600181526020017f30000000000000000000000000000000000000000000000000000000000000008152509050611511565b600082905060005b6000821461142f57808061141890612148565b915050600a826114289190612704565b9150611405565b60008167ffffffffffffffff81111561144b5761144a611d50565b5b6040519080825280601f01601f19166020018201604052801561147d5781602001600182028036833780820191505090505b5090505b6000851461150a576001826114969190612537565b9150600a856114a59190612735565b60306114b191906120f2565b60f81b8183815181106114c7576114c6612766565b5b60200101907effffffffffffffffffffffffffffffffffffffffffffffffffffffffffffff1916908160001a905350600a856115039190612704565b9450611481565b8093505050505b919050565b60008073ffffffffffffffffffffffffffffffffffffffff166002600084815260200190815260200160002060009054906101000a900473ffffffffffffffffffffffffffffffffffffffff1673ffffffffffffffffffffffffffffffffffffffff1614159050919050565b61158c838361177e565b61159960008484846115e7565b6115d8576040517f08c379a00000000000000000000000000000000000000000000000000000000081526004016115cf906126b5565b60405180910390fd5b505050565b505050565b505050565b60006116088473ffffffffffffffffffffffffffffffffffffffff16611958565b15611771578373ffffffffffffffffffffffffffffffffffffffff1663150b7a02611631610cb6565b8786866040518563ffffffff1660e01b815260040161165394939291906127ea565b602060405180830381600087803b15801561166d57600080fd5b505af192505050801561169e57506040513d601f19601f8201168201806040525081019061169b919061284b565b60015b611721573d80600081146116ce576040519150601f19603f3d011682016040523d82523d6000602084013e6116d3565b606091505b50600081511415611719576040517f08c379a0000000000000000000000000000000000000000000000000000000008152600401611710906126b5565b60405180910390fd5b805181602001fd5b63150b7a0260e01b7bffffffffffffffffffffffffffffffffffffffffffffffffffffffff1916817bffffffffffffffffffffffffffffffffffffffffffffffffffffffff191614915050611776565b600190505b949350505050565b600073ffffffffffffffffffffffffffffffffffffffff168273ffffffffffffffffffffffffffffffffffffffff1614156117ee576040517f08c379a00000000000000000000000000000000000000000000000000000000081526004016117e5906128c4565b60405180910390fd5b6117f781611516565b15611837576040517f08c379a000000000000000000000000000000000000000000000000000000000815260040161182e90612930565b60405180910390fd5b611843600083836115dd565b6001600360008473ffffffffffffffffffffffffffffffffffffffff1673ffffffffffffffffffffffffffffffffffffffff168152602001908152602001600020600082825461189391906120f2565b92505081905550816002600083815260200190815260200160002060006101000a81548173ffffffffffffffffffffffffffffffffffffffff021916908373ffffffffffffffffffffffffffffffffffffffff160217905550808273ffffffffffffffffffffffffffffffffffffffff16600073ffffffffffffffffffffffffffffffffffffffff167fddf252ad1be2c89b69c2b068fc378daa952ba7f163c4a11628f55a4df523b3ef60405160405180910390a4611954600083836115e2565b5050565b6000808273ffffffffffffffffffffffffffffffffffffffff163b119050919050565b6000604051905090565b600080fd5b600080fd5b60007fffffffff0000000000000000000000000000000000000000000000000000000082169050919050565b6119c48161198f565b81146119cf57600080fd5b50565b6000813590506119e1816119bb565b92915050565b6000602082840312156119fd576119fc611985565b5b6000611a0b848285016119d2565b91505092915050565b60008115159050919050565b611a2981611a14565b82525050565b6000602082019050611a446000830184611a20565b92915050565b600081519050919050565b600082825260208201905092915050565b60005b83811015611a84578082015181840152602081019050611a69565b83811115611a93576000848401525b50505050565b6000601f19601f8301169050919050565b6000611ab582611a4a565b611abf8185611a55565b9350611acf818560208601611a66565b611ad881611a99565b840191505092915050565b60006020820190508181036000830152611afd8184611aaa565b905092915050565b6000819050919050565b611b1881611b05565b8114611b2357600080fd5b50565b600081359050611b3581611b0f565b92915050565b600060208284031215611b5157611b50611985565b5b6000611b5f84828501611b26565b91505092915050565b600073ffffffffffffffffffffffffffffffffffffffff82169050919050565b6000611b9382611b68565b9050919050565b611ba381611b88565b82525050565b6000602082019050611bbe6000830184611b9a565b92915050565b611bcd81611b88565b8114611bd857600080fd5b50565b600081359050611bea81611bc4565b92915050565b60008060408385031215611c0757611c06611985565b5b6000611c1585828601611bdb565b9250506020611c2685828601611b26565b9150509250929050565b600080600060608486031215611c4957611c48611985565b5b6000611c5786828701611bdb565b9350506020611c6886828701611bdb565b9250506040611c7986828701611b26565b9150509250925092565b600060208284031215611c9957611c98611985565b5b6000611ca784828501611bdb565b91505092915050565b611cb981611b05565b82525050565b6000602082019050611cd46000830184611cb0565b92915050565b611ce381611a14565b8114611cee57600080fd5b50565b600081359050611d0081611cda565b92915050565b60008060408385031215611d1d57611d1c611985565b5b6000611d2b85828601611bdb565b9250506020611d3c85828601611cf1565b9150509250929050565b600080fd5b600080fd5b7f4e487b7100000000000000000000000000000000000000000000000000000000600052604160045260246000fd5b611d8882611a99565b810181811067ffffffffffffffff82111715611da757611da6611d50565b5b80604052505050565b6000611dba61197b565b9050611dc68282611d7f565b919050565b600067ffffffffffffffff821115611de657611de5611d50565b5b611def82611a99565b9050602081019050919050565b82818337600083830152505050565b6000611e1e611e1984611dcb565b611db0565b905082815260208101848484011115611e3a57611e39611d4b565b5b611e45848285611dfc565b509392505050565b600082601f830112611e6257611e61611d46565b5b8135611e72848260208601611e0b565b91505092915050565b60008060008060808587031215611e9557611e94611985565b5b6000611ea387828801611bdb565b9450506020611eb487828801611bdb565b9350506040611ec587828801611b26565b925050606085013567ffffffffffffffff811115611ee657611ee561198a565b5b611ef287828801611e4d565b91505092959194509250565b60008060408385031215611f1557611f14611985565b5b6000611f2385828601611bdb565b9250506020611f3485828601611bdb565b9150509250929050565b7f4e487b7100000000000000000000000000000000000000000000000000000000600052602260045260246000fd5b60006002820490506001821680611f8557607f821691505b60208210811415611f9957611f98611f3e565b5b50919050565b7f4552433732313a20617070726f76616c20746f2063757272656e74206f776e6560008201527f7200000000000000000000000000000000000000000000000000000000000000602082015250565b6000611ffb602183611a55565b915061200682611f9f565b604082019050919050565b6000602082019050818103600083015261202a81611fee565b9050919050565b7f4552433732313a20617070726f76652063616c6c6572206973206e6f7420746f60008201527f6b656e206f776e6572206e6f7220617070726f76656420666f7220616c6c0000602082015250565b600061208d603e83611a55565b915061209882612031565b604082019050919050565b600060208201905081810360008301526120bc81612080565b9050919050565b7f4e487b7100000000000000000000000000000000000000000000000000000000600052601160045260246000fd5b60006120fd82611b05565b915061210883611b05565b9250827fffffffffffffffffffffffffffffffffffffffffffffffffffffffffffffffff0382111561213d5761213c6120c3565b5b828201905092915050565b600061215382611b05565b91507fffffffffffffffffffffffffffffffffffffffffffffffffffffffffffffffff821415612186576121856120c3565b5b600182019050919050565b7f4552433732313a2063616c6c6572206973206e6f7420746f6b656e206f776e6560008201527f72206e6f7220617070726f766564000000000000000000000000000000000000602082015250565b60006121ed602e83611a55565b91506121f882612191565b604082019050919050565b6000602082019050818103600083015261221c816121e0565b9050919050565b7f4552433732313a20696e76616c696420746f6b656e2049440000000000000000600082015250565b6000612259601883611a55565b915061226482612223565b602082019050919050565b600060208201905081810360008301526122888161224c565b9050919050565b7f4552433732313a2061646472657373207a65726f206973206e6f74206120766160008201527f6c6964206f776e65720000000000000000000000000000000000000000000000602082015250565b60006122eb602983611a55565b91506122f68261228f565b604082019050919050565b6000602082019050818103600083015261231a816122de565b9050919050565b600081905092915050565b600061233782611a4a565b6123418185612321565b9350612351818560208601611a66565b80840191505092915050565b6000612369828561232c565b9150612375828461232c565b91508190509392505050565b7f4f776e61626c653a206e6577206f776e657220697320746865207a65726f206160008201527f6464726573730000000000000000000000000000000000000000000000000000602082015250565b60006123dd602683611a55565b91506123e882612381565b604082019050919050565b6000602082019050818103600083015261240c816123d0565b9050919050565b7f4552433732313a207472616e736665722066726f6d20696e636f72726563742060008201527f6f776e6572000000000000000000000000000000000000000000000000000000602082015250565b600061246f602583611a55565b915061247a82612413565b604082019050919050565b6000602082019050818103600083015261249e81612462565b9050919050565b7f4552433732313a207472616e7366657220746f20746865207a65726f2061646460008201527f7265737300000000000000000000000000000000000000000000000000000000602082015250565b6000612501602483611a55565b915061250c826124a5565b604082019050919050565b60006020820190508181036000830152612530816124f4565b9050919050565b600061254282611b05565b915061254d83611b05565b9250828210156125605761255f6120c3565b5b828203905092915050565b7f4f776e61626c653a2063616c6c6572206973206e6f7420746865206f776e6572600082015250565b60006125a1602083611a55565b91506125ac8261256b565b602082019050919050565b600060208201905081810360008301526125d081612594565b9050919050565b7f4552433732313a20617070726f766520746f2063616c6c657200000000000000600082015250565b600061260d601983611a55565b9150612618826125d7565b602082019050919050565b6000602082019050818103600083015261263c81612600565b9050919050565b7f4552433732313a207472616e7366657220746f206e6f6e20455243373231526560008201527f63656976657220696d706c656d656e7465720000000000000000000000000000602082015250565b600061269f603283611a55565b91506126aa82612643565b604082019050919050565b600060208201905081810360008301526126ce81612692565b9050919050565b7f4e487b7100000000000000000000000000000000000000000000000000000000600052601260045260246000fd5b600061270f82611b05565b915061271a83611b05565b92508261272a576127296126d5565b5b828204905092915050565b600061274082611b05565b915061274b83611b05565b92508261275b5761275a6126d5565b5b828206905092915050565b7f4e487b7100000000000000000000000000000000000000000000000000000000600052603260045260246000fd5b600081519050919050565b600082825260208201905092915050565b60006127bc82612795565b6127c681856127a0565b93506127d6818560208601611a66565b6127df81611a99565b840191505092915050565b60006080820190506127ff6000830187611b9a565b61280c6020830186611b9a565b6128196040830185611cb0565b818103606083015261282b81846127b1565b905095945050505050565b600081519050612845816119bb565b92915050565b60006020828403121561286157612860611985565b5b600061286f84828501612836565b91505092915050565b7f4552433732313a206d696e7420746f20746865207a65726f2061646472657373600082015250565b60006128ae602083611a55565b91506128b982612878565b602082019050919050565b600060208201905081810360008301526128dd816128a1565b9050919050565b7f4552433732313a20746f6b656e20616c7265616479206d696e74656400000000600082015250565b600061291a601c83611a55565b9150612925826128e4565b602082019050919050565b600060208201905081810360008301526129498161290d565b905091905056fea26469706673582212204a67a4e501d48f04453b703dbd25d83b90fc093ba660a8a1c64b490d670edd2164736f6c63430008090033",
  "linkReferences": {},
  "deployedLinkReferences": {}
}